S01800004750494F5F4F535F52544F535F6170702E7372656395
S11300000C942A000C9447000C9447000C9447006D
S11300100C9447000C9447000C9447000C94470040
S11300200C9447000C9447000C944F000C94470028
S11300300C9447000C9447000C9447000C94470020
S11300400C9447000C9447000C9447000C94470010
S11300500C94470011241FBECFE5D8E0DEBFCDBF0E
S113006010E0A0E6B0E0E4E6F3E002C005900D92F3
S1130070A037B107D9F710E0A0E7B0E001C01D92A6
S1130080A538B107E1F70E9449000C94B0010C9423
S113009000008F9A8E9A8D9A0E942801FDCF1F929C
S11300A00F920FB60F9211248F939F93AF93BF9328
S11300B081E08093800080917C0090917D00A091EC
S11300C07E00B0917F000196A11DB11D80937C003C
S11300D090937D00A0937E00B0937F008091780080
S11300E090917900A0917A00B0917B000196A11DB6
S11300F0B11D8093780090937900A0937A00B09317
S11301007B008091740090917500A0917600B0916D
S113011077000196A11DB11D809374009093750022
S1130120A0937600B0937700809170009091710055
S1130130A0917200B09173000196A11DB11D80932E
S1130140700090937100A0937200B0937300BF91FC
S1130150AF919F918F910F900FBE0F901F901895A4
S1130160909B03C081E080938300909B03C081E057
S113017080938400909B03C081E080938100089564
S113018080918300813049F41092780010927900B4
S113019010927A0010927B00959A809184008130AD
S11301A049F4109274001092750010927600109227
S11301B07700969A80918100813049F41092700002
S11301C0109271001092720010927300979A089521
S11301D0609178007091790080917A0090917B0011
S11301E028E730E040E050E00E948E01DC01CB01C2
S11301F00097A105B10509F4959860917400709178
S11302007500809176009091770024EB30E040E017
S113021050E00E948E01DC01CB010097A105B105DD
S113022009F4969860917000709171008091720049
S11302309091730020EF30E040E050E00E948E0186
S1130240DC01CB010097A105B10509F49798089545
S11302500F931F93CF93DF93809180008130C1F57A
S113026010928200C0E000E610E0D0E0FE01EE0F44
S1130270FF1FEE0FFF1FEC0FFD1FE00FF11F238187
S1130280348140E050E060917C0070917D00809169
S11302907E0090917F000E948E01DC01CB010097CB
S11302A0A105B10561F4CE01880F991F880F991F2C
S11302B0C80FD91FC00FD11FE881F9810995C091DA
S11302C08200CF5FC0938200C33078F21092800026
S11302D0DF91CF911F910F91089583B7816083BF00
S11302E083B7846083BF83B7806883BF89B7816025
S11302F089BF7894089583B7816083BF83B784608E
S113030083BF83B7886083BF83B7806883BF89B79F
S1130310826089BF88EC8CBF78940895A1E21A2E7C
S1130320AA1BBB1BFD010DC0AA1FBB1FEE1FFF1F95
S1130330A217B307E407F50720F0A21BB30BE40BE5
S1130340F50B661F771F881F991F1A9469F760952C
S11303507095809590959B01AC01BD01CF010895E6
S1070360F894FFCF3B
S1130364B000020A00C000080F00E80001140000F5
S9030000FC
